{
  "contractName": "FacialRecognition",
  "abi": [
    {
      "anonymous": false,
      "inputs": [
        {
          "indexed": true,
          "internalType": "address",
          "name": "user",
          "type": "address"
        },
        {
          "indexed": false,
          "internalType": "bytes32",
          "name": "hash",
          "type": "bytes32"
        }
      ],
      "name": "UserRegistered",
      "type": "event"
    },
    {
      "anonymous": false,
      "inputs": [
        {
          "indexed": true,
          "internalType": "address",
          "name": "user",
          "type": "address"
        },
        {
          "indexed": false,
          "internalType": "bool",
          "name": "success",
          "type": "bool"
        }
      ],
      "name": "UserVerified",
      "type": "event"
    },
    {
      "inputs": [
        {
          "internalType": "address",
          "name": "",
          "type": "address"
        }
      ],
      "name": "userHashes",
      "outputs": [
        {
          "internalType": "bytes32",
          "name": "",
          "type": "bytes32"
        }
      ],
      "stateMutability": "view",
      "type": "function"
    },
    {
      "inputs": [
        {
          "internalType": "bytes32",
          "name": "hash",
          "type": "bytes32"
        }
      ],
      "name": "registerUser",
      "outputs": [],
      "stateMutability": "nonpayable",
      "type": "function"
    },
    {
      "inputs": [
        {
          "internalType": "bytes32",
          "name": "hash",
          "type": "bytes32"
        }
      ],
      "name": "verifyUser",
      "outputs": [
        {
          "internalType": "bool",
          "name": "",
          "type": "bool"
        }
      ],
      "stateMutability": "nonpayable",
      "type": "function"
    }
  ],
  "bytecode": "0x608060405234801561000f575f80fd5b506103778061001d5f395ff3fe608060405234801561000f575f80fd5b506004361061003f575f3560e01c80632dc03259146100435780636e67518b1461005f578063c3cfe4a11461008f575b5f80fd5b61005d60048036038101906100589190610236565b6100bf565b005b61007960048036038101906100749190610236565b610151565b604051610086919061027b565b60405180910390f35b6100a960048036038101906100a491906102ee565b6101eb565b6040516100b69190610328565b60405180910390f35b805f803373ffffffffffffffffffffffffffffffffffffffff1673ffffffffffffffffffffffffffffffffffffffff1681526020019081526020015f20819055503373ffffffffffffffffffffffffffffffffffffffff167f4c5d15f5779ae1ecd7d55bd3283d898e29c35743d172bd7b83a16e17bc0afe2a826040516101469190610328565b60405180910390a250565b5f80825f803373ffffffffffffffffffffffffffffffffffffffff1673ffffffffffffffffffffffffffffffffffffffff1681526020019081526020015f20541490503373ffffffffffffffffffffffffffffffffffffffff167f34736af44d2b91cd43fa896d4cfe0861ec1e6b4538583d385fc671639e9153b2826040516101da919061027b565b60405180910390a280915050919050565b5f602052805f5260405f205f915090505481565b5f80fd5b5f819050919050565b61021581610203565b811461021f575f80fd5b50565b5f813590506102308161020c565b92915050565b5f6020828403121561024b5761024a6101ff565b5b5f61025884828501610222565b91505092915050565b5f8115159050919050565b61027581610261565b82525050565b5f60208201905061028e5f83018461026c565b92915050565b5f73ffffffffffffffffffffffffffffffffffffffff82169050919050565b5f6102bd82610294565b9050919050565b6102cd816102b3565b81146102d7575f80fd5b50565b5f813590506102e8816102c4565b92915050565b5f60208284031215610303576103026101ff565b5b5f610310848285016102da565b91505092915050565b61032281610203565b82525050565b5f60208201905061033b5f830184610319565b9291505056fea264697066735822122026d591fbc03cec4389392a8dabff46103a7d4f967c71fd4660f9c3ed699fd9aa64736f6c63430008150033",
  "immutableReferences": {},
  "source": "// SPDX-License-Identifier: MIT\r\npragma solidity ^0.8.0;\r\n\r\ncontract FacialRecognition {\r\n    mapping(address => bytes32) public userHashes;\r\n\r\n    event UserRegistered(address indexed user, bytes32 hash);\r\n    event UserVerified(address indexed user, bool success);\r\n\r\n    function registerUser(bytes32 hash) public {\r\n        userHashes[msg.sender] = hash;\r\n        emit UserRegistered(msg.sender, hash);\r\n    }\r\n\r\n    function verifyUser(bytes32 hash) public returns (bool) {\r\n        bool success = (userHashes[msg.sender] == hash);\r\n        emit UserVerified(msg.sender, success);\r\n        return success;\r\n    }\r\n}\r\n",
  "sourcePath": "/mnt/c/Users/dsoha/facial-recognition-blockchain/contracts/facialRecognition.sol",
  "compiler": {
    "name": "solc",
    "version": "0.8.21+commit.d9974bed.Emscripten.clang"
  },
  "schemaVersion": "3.4.16",
  "updatedAt": "2024-07-08T03:03:24.022Z",
  "devdoc": {
    "kind": "dev",
    "methods": {},
    "version": 1
  },
  "userdoc": {
    "kind": "user",
    "methods": {},
    "version": 1
  }
}