{
  "contractName": "NFT",
  "abi": [
    {
      "inputs": [],
      "stateMutability": "nonpayable",
      "type": "constructor"
    },
    {
      "inputs": [
        {
          "internalType": "address",
          "name": "sender",
          "type": "address"
        },
        {
          "internalType": "uint256",
          "name": "tokenId",
          "type": "uint256"
        },
        {
          "internalType": "address",
          "name": "owner",
          "type": "address"
        }
      ],
      "name": "ERC721IncorrectOwner",
      "type": "error"
    },
    {
      "inputs": [
        {
          "internalType": "address",
          "name": "operator",
          "type": "address"
        },
        {
          "internalType": "uint256",
          "name": "tokenId",
          "type": "uint256"
        }
      ],
      "name": "ERC721InsufficientApproval",
      "type": "error"
    },
    {
      "inputs": [
        {
          "internalType": "address",
          "name": "approver",
          "type": "address"
        }
      ],
      "name": "ERC721InvalidApprover",
      "type": "error"
    },
    {
      "inputs": [
        {
          "internalType": "address",
          "name": "operator",
          "type": "address"
        }
      ],
      "name": "ERC721InvalidOperator",
      "type": "error"
    },
    {
      "inputs": [
        {
          "internalType": "address",
          "name": "owner",
          "type": "address"
        }
      ],
      "name": "ERC721InvalidOwner",
      "type": "error"
    },
    {
      "inputs": [
        {
          "internalType": "address",
          "name": "receiver",
          "type": "address"
        }
      ],
      "name": "ERC721InvalidReceiver",
      "type": "error"
    },
    {
      "inputs": [
        {
          "internalType": "address",
          "name": "sender",
          "type": "address"
        }
      ],
      "name": "ERC721InvalidSender",
      "type": "error"
    },
    {
      "inputs": [
        {
          "internalType": "uint256",
          "name": "tokenId",
          "type": "uint256"
        }
      ],
      "name": "ERC721NonexistentToken",
      "type": "error"
    },
    {
      "anonymous": false,
      "inputs": [
        {
          "indexed": true,
          "internalType": "address",
          "name": "owner",
          "type": "address"
        },
        {
          "indexed": true,
          "internalType": "address",
          "name": "approved",
          "type": "address"
        },
        {
          "indexed": true,
          "internalType": "uint256",
          "name": "tokenId",
          "type": "uint256"
        }
      ],
      "name": "Approval",
      "type": "event"
    },
    {
      "anonymous": false,
      "inputs": [
        {
          "indexed": true,
          "internalType": "address",
          "name": "owner",
          "type": "address"
        },
        {
          "indexed": true,
          "internalType": "address",
          "name": "operator",
          "type": "address"
        },
        {
          "indexed": false,
          "internalType": "bool",
          "name": "approved",
          "type": "bool"
        }
      ],
      "name": "ApprovalForAll",
      "type": "event"
    },
    {
      "anonymous": false,
      "inputs": [
        {
          "indexed": false,
          "internalType": "uint256",
          "name": "_fromTokenId",
          "type": "uint256"
        },
        {
          "indexed": false,
          "internalType": "uint256",
          "name": "_toTokenId",
          "type": "uint256"
        }
      ],
      "name": "BatchMetadataUpdate",
      "type": "event"
    },
    {
      "anonymous": false,
      "inputs": [
        {
          "indexed": false,
          "internalType": "uint256",
          "name": "_tokenId",
          "type": "uint256"
        }
      ],
      "name": "MetadataUpdate",
      "type": "event"
    },
    {
      "anonymous": false,
      "inputs": [
        {
          "indexed": true,
          "internalType": "address",
          "name": "from",
          "type": "address"
        },
        {
          "indexed": true,
          "internalType": "address",
          "name": "to",
          "type": "address"
        },
        {
          "indexed": true,
          "internalType": "uint256",
          "name": "tokenId",
          "type": "uint256"
        }
      ],
      "name": "Transfer",
      "type": "event"
    },
    {
      "inputs": [],
      "name": "admin",
      "outputs": [
        {
          "internalType": "address",
          "name": "",
          "type": "address"
        }
      ],
      "stateMutability": "view",
      "type": "function"
    },
    {
      "inputs": [
        {
          "internalType": "address",
          "name": "to",
          "type": "address"
        },
        {
          "internalType": "uint256",
          "name": "tokenId",
          "type": "uint256"
        }
      ],
      "name": "approve",
      "outputs": [],
      "stateMutability": "nonpayable",
      "type": "function"
    },
    {
      "inputs": [
        {
          "internalType": "address",
          "name": "owner",
          "type": "address"
        }
      ],
      "name": "balanceOf",
      "outputs": [
        {
          "internalType": "uint256",
          "name": "",
          "type": "uint256"
        }
      ],
      "stateMutability": "view",
      "type": "function"
    },
    {
      "inputs": [
        {
          "internalType": "uint256",
          "name": "tokenId",
          "type": "uint256"
        }
      ],
      "name": "getApproved",
      "outputs": [
        {
          "internalType": "address",
          "name": "",
          "type": "address"
        }
      ],
      "stateMutability": "view",
      "type": "function"
    },
    {
      "inputs": [
        {
          "internalType": "address",
          "name": "owner",
          "type": "address"
        },
        {
          "internalType": "address",
          "name": "operator",
          "type": "address"
        }
      ],
      "name": "isApprovedForAll",
      "outputs": [
        {
          "internalType": "bool",
          "name": "",
          "type": "bool"
        }
      ],
      "stateMutability": "view",
      "type": "function"
    },
    {
      "inputs": [],
      "name": "name",
      "outputs": [
        {
          "internalType": "string",
          "name": "",
          "type": "string"
        }
      ],
      "stateMutability": "view",
      "type": "function"
    },
    {
      "inputs": [],
      "name": "nextTokenId",
      "outputs": [
        {
          "internalType": "uint256",
          "name": "",
          "type": "uint256"
        }
      ],
      "stateMutability": "view",
      "type": "function"
    },
    {
      "inputs": [
        {
          "internalType": "uint256",
          "name": "tokenId",
          "type": "uint256"
        }
      ],
      "name": "ownerOf",
      "outputs": [
        {
          "internalType": "address",
          "name": "",
          "type": "address"
        }
      ],
      "stateMutability": "view",
      "type": "function"
    },
    {
      "inputs": [
        {
          "internalType": "address",
          "name": "from",
          "type": "address"
        },
        {
          "internalType": "address",
          "name": "to",
          "type": "address"
        },
        {
          "internalType": "uint256",
          "name": "tokenId",
          "type": "uint256"
        }
      ],
      "name": "safeTransferFrom",
      "outputs": [],
      "stateMutability": "nonpayable",
      "type": "function"
    },
    {
      "inputs": [
        {
          "internalType": "address",
          "name": "from",
          "type": "address"
        },
        {
          "internalType": "address",
          "name": "to",
          "type": "address"
        },
        {
          "internalType": "uint256",
          "name": "tokenId",
          "type": "uint256"
        },
        {
          "internalType": "bytes",
          "name": "data",
          "type": "bytes"
        }
      ],
      "name": "safeTransferFrom",
      "outputs": [],
      "stateMutability": "nonpayable",
      "type": "function"
    },
    {
      "inputs": [
        {
          "internalType": "address",
          "name": "operator",
          "type": "address"
        },
        {
          "internalType": "bool",
          "name": "approved",
          "type": "bool"
        }
      ],
      "name": "setApprovalForAll",
      "outputs": [],
      "stateMutability": "nonpayable",
      "type": "function"
    },
    {
      "inputs": [
        {
          "internalType": "bytes4",
          "name": "interfaceId",
          "type": "bytes4"
        }
      ],
      "name": "supportsInterface",
      "outputs": [
        {
          "internalType": "bool",
          "name": "",
          "type": "bool"
        }
      ],
      "stateMutability": "view",
      "type": "function"
    },
    {
      "inputs": [],
      "name": "symbol",
      "outputs": [
        {
          "internalType": "string",
          "name": "",
          "type": "string"
        }
      ],
      "stateMutability": "view",
      "type": "function"
    },
    {
      "inputs": [
        {
          "internalType": "uint256",
          "name": "tokenId",
          "type": "uint256"
        }
      ],
      "name": "tokenURI",
      "outputs": [
        {
          "internalType": "string",
          "name": "",
          "type": "string"
        }
      ],
      "stateMutability": "view",
      "type": "function"
    },
    {
      "inputs": [
        {
          "internalType": "address",
          "name": "from",
          "type": "address"
        },
        {
          "internalType": "address",
          "name": "to",
          "type": "address"
        },
        {
          "internalType": "uint256",
          "name": "tokenId",
          "type": "uint256"
        }
      ],
      "name": "transferFrom",
      "outputs": [],
      "stateMutability": "nonpayable",
      "type": "function"
    },
    {
      "inputs": [
        {
          "internalType": "address",
          "name": "to",
          "type": "address"
        }
      ],
      "name": "mint",
      "outputs": [],
      "stateMutability": "nonpayable",
      "type": "function"
    }
  ],
  "bytecode": "0x608060405234801562000010575f80fd5b506040518060400160405280600681526020017f4d59204e465400000000000000000000000000000000000000000000000000008152506040518060400160405280600381526020017f4e46540000000000000000000000000000000000000000000000000000000000815250815f90816200008d91906200034c565b5080600190816200009f91906200034c565b5050503360085f6101000a81548173ffffffffffffffffffffffffffffffffffffffff021916908373ffffffffffffffffffffffffffffffffffffffff16021790555062000430565b5f81519050919050565b7f4e487b71000000000000000000000000000000000000000000000000000000005f52604160045260245ffd5b7f4e487b71000000000000000000000000000000000000000000000000000000005f52602260045260245ffd5b5f60028204905060018216806200016457607f821691505b6020821081036200017a57620001796200011f565b5b50919050565b5f819050815f5260205f209050919050565b5f6020601f8301049050919050565b5f82821b905092915050565b5f60088302620001de7fffffffffffffffffffffffffffffffffffffffffffffffffffffffffffffffff82620001a1565b620001ea8683620001a1565b95508019841693508086168417925050509392505050565b5f819050919050565b5f819050919050565b5f620002346200022e620002288462000202565b6200020b565b62000202565b9050919050565b5f819050919050565b6200024f8362000214565b620002676200025e826200023b565b848454620001ad565b825550505050565b5f90565b6200027d6200026f565b6200028a81848462000244565b505050565b5b81811015620002b157620002a55f8262000273565b60018101905062000290565b5050565b601f8211156200030057620002ca8162000180565b620002d58462000192565b81016020851015620002e5578190505b620002fd620002f48562000192565b8301826200028f565b50505b505050565b5f82821c905092915050565b5f620003225f198460080262000305565b1980831691505092915050565b5f6200033c838362000311565b9150826002028217905092915050565b6200035782620000e8565b67ffffffffffffffff811115620003735762000372620000f2565b5b6200037f82546200014c565b6200038c828285620002b5565b5f60209050601f831160018114620003c2575f8415620003ad578287015190505b620003b985826200032f565b86555062000428565b601f198416620003d28662000180565b5f5b82811015620003fb57848901518255600182019150602085019450602081019050620003d4565b868310156200041b578489015162000417601f89168262000311565b8355505b6001600288020188555050505b505050505050565b6123d8806200043e5f395ff3fe608060405234801561000f575f80fd5b50600436106100fe575f3560e01c806370a0823111610095578063b88d4fde11610064578063b88d4fde146102a8578063c87b56dd146102c4578063e985e9c5146102f4578063f851a44014610324576100fe565b806370a082311461022057806375794a3c1461025057806395d89b411461026e578063a22cb4651461028c576100fe565b806323b872dd116100d157806323b872dd1461019c57806342842e0e146101b85780636352211e146101d45780636a62784214610204576100fe565b806301ffc9a71461010257806306fdde0314610132578063081812fc14610150578063095ea7b314610180575b5f80fd5b61011c600480360381019061011791906118ec565b610342565b6040516101299190611931565b60405180910390f35b61013a6103a2565b60405161014791906119d4565b60405180910390f35b61016a60048036038101906101659190611a27565b610431565b6040516101779190611a91565b60405180910390f35b61019a60048036038101906101959190611ad4565b61044c565b005b6101b660048036038101906101b19190611b12565b610462565b005b6101d260048036038101906101cd9190611b12565b610561565b005b6101ee60048036038101906101e99190611a27565b610580565b6040516101fb9190611a91565b60405180910390f35b61021e60048036038101906102199190611b62565b610591565b005b61023a60048036038101906102359190611b62565b61066a565b6040516102479190611b9c565b60405180910390f35b610258610720565b6040516102659190611b9c565b60405180910390f35b610276610726565b60405161028391906119d4565b60405180910390f35b6102a660048036038101906102a19190611bdf565b6107b6565b005b6102c260048036038101906102bd9190611d49565b6107cc565b005b6102de60048036038101906102d99190611a27565b6107e9565b6040516102eb91906119d4565b60405180910390f35b61030e60048036038101906103099190611dc9565b6108f4565b60405161031b9190611931565b60405180910390f35b61032c610982565b6040516103399190611a91565b60405180910390f35b5f634906490660e01b7bffffffffffffffffffffffffffffffffffffffffffffffffffffffff1916827bffffffffffffffffffffffffffffffffffffffffffffffffffffffff1916148061039b575061039a826109a7565b5b9050919050565b60605f80546103b090611e34565b80601f01602080910402602001604051908101604052809291908181526020018280546103dc90611e34565b80156104275780601f106103fe57610100808354040283529160200191610427565b820191905f5260205f20905b81548152906001019060200180831161040a57829003601f168201915b5050505050905090565b5f61043b82610a88565b5061044582610b0e565b9050919050565b61045e8282610459610b47565b610b4e565b5050565b5f73ffffffffffffffffffffffffffffffffffffffff168273ffffffffffffffffffffffffffffffffffffffff16036104d2575f6040517f64a0ae920000000000000000000000000000000000000000000000000000000081526004016104c99190611a91565b60405180910390fd5b5f6104e583836104e0610b47565b610b60565b90508373ffffffffffffffffffffffffffffffffffffffff168173ffffffffffffffffffffffffffffffffffffffff161461055b578382826040517f64283d7b00000000000000000000000000000000000000000000000000000000815260040161055293929190611e64565b60405180910390fd5b50505050565b61057b83838360405180602001604052805f8152506107cc565b505050565b5f61058a82610a88565b9050919050565b60085f9054906101000a900473ffffffffffffffffffffffffffffffffffffffff1673ffffffffffffffffffffffffffffffffffffffff163373ffffffffffffffffffffffffffffffffffffffff1614610620576040517f08c379a000000000000000000000000000000000000000000000000000000000815260040161061790611ee3565b60405180910390fd5b61062c81600754610d6b565b61065060075460405180606001604052806035815260200161236e60359139610d88565b60075f81548092919061066290611f2e565b919050555050565b5f8073ffffffffffffffffffffffffffffffffffffffff168273ffffffffffffffffffffffffffffffffffffffff16036106db575f6040517f89c62b640000000000000000000000000000000000000000000000000000000081526004016106d29190611a91565b60405180910390fd5b60035f8373ffffffffffffffffffffffffffffffffffffffff1673ffffffffffffffffffffffffffffffffffffffff1681526020019081526020015f20549050919050565b60075481565b60606001805461073590611e34565b80601f016020809104026020016040519081016040528092919081815260200182805461076190611e34565b80156107ac5780601f10610783576101008083540402835291602001916107ac565b820191905f5260205f20905b81548152906001019060200180831161078f57829003601f168201915b5050505050905090565b6107c86107c1610b47565b8383610de2565b5050565b6107d7848484610462565b6107e384848484610f4b565b50505050565b60606107f482610a88565b505f60065f8481526020019081526020015f20805461081290611e34565b80601f016020809104026020016040519081016040528092919081815260200182805461083e90611e34565b80156108895780601f1061086057610100808354040283529160200191610889565b820191905f5260205f20905b81548152906001019060200180831161086c57829003601f168201915b505050505090505f6108996110fd565b90505f8151036108ad5781925050506108ef565b5f825111156108e15780826040516020016108c9929190611faf565b604051602081830303815290604052925050506108ef565b6108ea84611113565b925050505b919050565b5f60055f8473ffffffffffffffffffffffffffffffffffffffff1673ffffffffffffffffffffffffffffffffffffffff1681526020019081526020015f205f8373ffffffffffffffffffffffffffffffffffffffff1673ffffffffffffffffffffffffffffffffffffffff1681526020019081526020015f205f9054906101000a900460ff16905092915050565b60085f9054906101000a900473ffffffffffffffffffffffffffffffffffffffff1681565b5f7f80ac58cd000000000000000000000000000000000000000000000000000000007bffffffffffffffffffffffffffffffffffffffffffffffffffffffff1916827bffffffffffffffffffffffffffffffffffffffffffffffffffffffff19161480610a7157507f5b5e139f000000000000000000000000000000000000000000000000000000007bffffffffffffffffffffffffffffffffffffffffffffffffffffffff1916827bffffffffffffffffffffffffffffffffffffffffffffffffffffffff1916145b80610a815750610a8082611179565b5b9050919050565b5f80610a93836111e2565b90505f73ffffffffffffffffffffffffffffffffffffffff168173ffffffffffffffffffffffffffffffffffffffff1603610b0557826040517f7e273289000000000000000000000000000000000000000000000000000000008152600401610afc9190611b9c565b60405180910390fd5b80915050919050565b5f60045f8381526020019081526020015f205f9054906101000a900473ffffffffffffffffffffffffffffffffffffffff169050919050565b5f33905090565b610b5b838383600161121b565b505050565b5f80610b6b846111e2565b90505f73ffffffffffffffffffffffffffffffffffffffff168373ffffffffffffffffffffffffffffffffffffffff1614610bac57610bab8184866113da565b5b5f73ffffffffffffffffffffffffffffffffffffffff168173ffffffffffffffffffffffffffffffffffffffff1614610c3757610beb5f855f8061121b565b600160035f8373ffffffffffffffffffffffffffffffffffffffff1673ffffffffffffffffffffffffffffffffffffffff1681526020019081526020015f205f82825403925050819055505b5f73ffffffffffffffffffffffffffffffffffffffff168573ffffffffffffffffffffffffffffffffffffffff1614610cb657600160035f8773ffffffffffffffffffffffffffffffffffffffff1673ffffffffffffffffffffffffffffffffffffffff1681526020019081526020015f205f82825401925050819055505b8460025f8681526020019081526020015f205f6101000a81548173ffffffffffffffffffffffffffffffffffffffff021916908373ffffffffffffffffffffffffffffffffffffffff160217905550838573ffffffffffffffffffffffffffffffffffffffff168273ffffffffffffffffffffffffffffffffffffffff167fddf252ad1be2c89b69c2b068fc378daa952ba7f163c4a11628f55a4df523b3ef60405160405180910390a4809150509392505050565b610d84828260405180602001604052805f81525061149d565b5050565b8060065f8481526020019081526020015f209081610da6919061216f565b507ff8e1a15aba9398e019f0b49df1a4fde98ee17ae345cb5f6b5e2c27f5033e8ce782604051610dd69190611b9c565b60405180910390a15050565b5f73ffffffffffffffffffffffffffffffffffffffff168273ffffffffffffffffffffffffffffffffffffffff1603610e5257816040517f5b08ba18000000000000000000000000000000000000000000000000000000008152600401610e499190611a91565b60405180910390fd5b8060055f8573ffffffffffffffffffffffffffffffffffffffff1673ffffffffffffffffffffffffffffffffffffffff1681526020019081526020015f205f8473ffffffffffffffffffffffffffffffffffffffff1673ffffffffffffffffffffffffffffffffffffffff1681526020019081526020015f205f6101000a81548160ff0219169083151502179055508173ffffffffffffffffffffffffffffffffffffffff168373ffffffffffffffffffffffffffffffffffffffff167f17307eab39ab6107e8899845ad3d59bd9653f200f220920489ca2b5937696c3183604051610f3e9190611931565b60405180910390a3505050565b5f8373ffffffffffffffffffffffffffffffffffffffff163b11156110f7578273ffffffffffffffffffffffffffffffffffffffff1663150b7a02610f8e610b47565b8685856040518563ffffffff1660e01b8152600401610fb09493929190612290565b6020604051808303815f875af1925050508015610feb57506040513d601f19601f82011682018060405250810190610fe891906122ee565b60015b61106c573d805f8114611019576040519150601f19603f3d011682016040523d82523d5f602084013e61101e565b606091505b505f81510361106457836040517f64a0ae9200000000000000000000000000000000000000000000000000000000815260040161105b9190611a91565b60405180910390fd5b805181602001fd5b63150b7a0260e01b7bffffffffffffffffffffffffffffffffffffffffffffffffffffffff1916817bffffffffffffffffffffffffffffffffffffffffffffffffffffffff1916146110f557836040517f64a0ae920000000000000000000000000000000000000000000000000000000081526004016110ec9190611a91565b60405180910390fd5b505b50505050565b606060405180602001604052805f815250905090565b606061111e82610a88565b505f6111286110fd565b90505f8151116111465760405180602001604052805f815250611171565b80611150846114b8565b604051602001611161929190611faf565b6040516020818303038152906040525b915050919050565b5f7f01ffc9a7000000000000000000000000000000000000000000000000000000007bffffffffffffffffffffffffffffffffffffffffffffffffffffffff1916827bffffffffffffffffffffffffffffffffffffffffffffffffffffffff1916149050919050565b5f60025f8381526020019081526020015f205f9054906101000a900473ffffffffffffffffffffffffffffffffffffffff169050919050565b808061125357505f73ffffffffffffffffffffffffffffffffffffffff168273ffffffffffffffffffffffffffffffffffffffff1614155b15611385575f61126284610a88565b90505f73ffffffffffffffffffffffffffffffffffffffff168373ffffffffffffffffffffffffffffffffffffffff16141580156112cc57508273ffffffffffffffffffffffffffffffffffffffff168173ffffffffffffffffffffffffffffffffffffffff1614155b80156112df57506112dd81846108f4565b155b1561132157826040517fa9fbf51f0000000000000000000000000000000000000000000000000000000081526004016113189190611a91565b60405180910390fd5b811561138357838573ffffffffffffffffffffffffffffffffffffffff168273ffffffffffffffffffffffffffffffffffffffff167f8c5be1e5ebec7d5bd14f71427d1e84f3dd0314c0f7b2291e5b200ac8c7c3b92560405160405180910390a45b505b8360045f8581526020019081526020015f205f6101000a81548173ffffffffffffffffffffffffffffffffffffffff021916908373ffffffffffffffffffffffffffffffffffffffff16021790555050505050565b6113e5838383611582565b611498575f73ffffffffffffffffffffffffffffffffffffffff168373ffffffffffffffffffffffffffffffffffffffff160361145957806040517f7e2732890000000000000000000000000000000000000000000000000000000081526004016114509190611b9c565b60405180910390fd5b81816040517f177e802f00000000000000000000000000000000000000000000000000000000815260040161148f929190612319565b60405180910390fd5b505050565b6114a78383611642565b6114b35f848484610f4b565b505050565b60605f60016114c684611735565b0190505f8167ffffffffffffffff8111156114e4576114e3611c25565b5b6040519080825280601f01601f1916602001820160405280156115165781602001600182028036833780820191505090505b5090505f82602001820190505b600115611577578080600190039150507f3031323334353637383961626364656600000000000000000000000000000000600a86061a8153600a858161156c5761156b612340565b5b0494505f8503611523575b819350505050919050565b5f8073ffffffffffffffffffffffffffffffffffffffff168373ffffffffffffffffffffffffffffffffffffffff161415801561163957508273ffffffffffffffffffffffffffffffffffffffff168473ffffffffffffffffffffffffffffffffffffffff1614806115fa57506115f984846108f4565b5b8061163857508273ffffffffffffffffffffffffffffffffffffffff1661162083610b0e565b73ffffffffffffffffffffffffffffffffffffffff16145b5b90509392505050565b5f73ffffffffffffffffffffffffffffffffffffffff168273ffffffffffffffffffffffffffffffffffffffff16036116b2575f6040517f64a0ae920000000000000000000000000000000000000000000000000000000081526004016116a99190611a91565b60405180910390fd5b5f6116be83835f610b60565b90505f73ffffffffffffffffffffffffffffffffffffffff168173ffffffffffffffffffffffffffffffffffffffff1614611730575f6040517f73c6ac6e0000000000000000000000000000000000000000000000000000000081526004016117279190611a91565b60405180910390fd5b505050565b5f805f90507a184f03e93ff9f4daa797ed6e38ed64bf6a1f0100000000000000008310611791577a184f03e93ff9f4daa797ed6e38ed64bf6a1f010000000000000000838161178757611786612340565b5b0492506040810190505b6d04ee2d6d415b85acef810000000083106117ce576d04ee2d6d415b85acef810000000083816117c4576117c3612340565b5b0492506020810190505b662386f26fc1000083106117fd57662386f26fc1000083816117f3576117f2612340565b5b0492506010810190505b6305f5e1008310611826576305f5e100838161181c5761181b612340565b5b0492506008810190505b612710831061184b57612710838161184157611840612340565b5b0492506004810190505b6064831061186e576064838161186457611863612340565b5b0492506002810190505b600a831061187d576001810190505b80915050919050565b5f604051905090565b5f80fd5b5f80fd5b5f7fffffffff0000000000000000000000000000000000000000000000000000000082169050919050565b6118cb81611897565b81146118d5575f80fd5b50565b5f813590506118e6816118c2565b92915050565b5f602082840312156119015761190061188f565b5b5f61190e848285016118d8565b91505092915050565b5f8115159050919050565b61192b81611917565b82525050565b5f6020820190506119445f830184611922565b92915050565b5f81519050919050565b5f82825260208201905092915050565b5f5b83811015611981578082015181840152602081019050611966565b5f8484015250505050565b5f601f19601f8301169050919050565b5f6119a68261194a565b6119b08185611954565b93506119c0818560208601611964565b6119c98161198c565b840191505092915050565b5f6020820190508181035f8301526119ec818461199c565b905092915050565b5f819050919050565b611a06816119f4565b8114611a10575f80fd5b50565b5f81359050611a21816119fd565b92915050565b5f60208284031215611a3c57611a3b61188f565b5b5f611a4984828501611a13565b91505092915050565b5f73ffffffffffffffffffffffffffffffffffffffff82169050919050565b5f611a7b82611a52565b9050919050565b611a8b81611a71565b82525050565b5f602082019050611aa45f830184611a82565b92915050565b611ab381611a71565b8114611abd575f80fd5b50565b5f81359050611ace81611aaa565b92915050565b5f8060408385031215611aea57611ae961188f565b5b5f611af785828601611ac0565b9250506020611b0885828601611a13565b9150509250929050565b5f805f60608486031215611b2957611b2861188f565b5b5f611b3686828701611ac0565b9350506020611b4786828701611ac0565b9250506040611b5886828701611a13565b9150509250925092565b5f60208284031215611b7757611b7661188f565b5b5f611b8484828501611ac0565b91505092915050565b611b96816119f4565b82525050565b5f602082019050611baf5f830184611b8d565b92915050565b611bbe81611917565b8114611bc8575f80fd5b50565b5f81359050611bd981611bb5565b92915050565b5f8060408385031215611bf557611bf461188f565b5b5f611c0285828601611ac0565b9250506020611c1385828601611bcb565b9150509250929050565b5f80fd5b5f80fd5b7f4e487b71000000000000000000000000000000000000000000000000000000005f52604160045260245ffd5b611c5b8261198c565b810181811067ffffffffffffffff82111715611c7a57611c79611c25565b5b80604052505050565b5f611c8c611886565b9050611c988282611c52565b919050565b5f67ffffffffffffffff821115611cb757611cb6611c25565b5b611cc08261198c565b9050602081019050919050565b828183375f83830152505050565b5f611ced611ce884611c9d565b611c83565b905082815260208101848484011115611d0957611d08611c21565b5b611d14848285611ccd565b509392505050565b5f82601f830112611d3057611d2f611c1d565b5b8135611d40848260208601611cdb565b91505092915050565b5f805f8060808587031215611d6157611d6061188f565b5b5f611d6e87828801611ac0565b9450506020611d7f87828801611ac0565b9350506040611d9087828801611a13565b925050606085013567ffffffffffffffff811115611db157611db0611893565b5b611dbd87828801611d1c565b91505092959194509250565b5f8060408385031215611ddf57611dde61188f565b5b5f611dec85828601611ac0565b9250506020611dfd85828601611ac0565b9150509250929050565b7f4e487b71000000000000000000000000000000000000000000000000000000005f52602260045260245ffd5b5f6002820490506001821680611e4b57607f821691505b602082108103611e5e57611e5d611e07565b5b50919050565b5f606082019050611e775f830186611a82565b611e846020830185611b8d565b611e916040830184611a82565b949350505050565b7f6f6e6c792061646d696e206861732063616e206d696e740000000000000000005f82015250565b5f611ecd601783611954565b9150611ed882611e99565b602082019050919050565b5f6020820190508181035f830152611efa81611ec1565b9050919050565b7f4e487b71000000000000000000000000000000000000000000000000000000005f52601160045260245ffd5b5f611f38826119f4565b91507fffffffffffffffffffffffffffffffffffffffffffffffffffffffffffffffff8203611f6a57611f69611f01565b5b600182019050919050565b5f81905092915050565b5f611f898261194a565b611f938185611f75565b9350611fa3818560208601611964565b80840191505092915050565b5f611fba8285611f7f565b9150611fc68284611f7f565b91508190509392505050565b5f819050815f5260205f209050919050565b5f6020601f8301049050919050565b5f82821b905092915050565b5f6008830261202e7fffffffffffffffffffffffffffffffffffffffffffffffffffffffffffffffff82611ff3565b6120388683611ff3565b95508019841693508086168417925050509392505050565b5f819050919050565b5f61207361206e612069846119f4565b612050565b6119f4565b9050919050565b5f819050919050565b61208c83612059565b6120a06120988261207a565b848454611fff565b825550505050565b5f90565b6120b46120a8565b6120bf818484612083565b505050565b5b818110156120e2576120d75f826120ac565b6001810190506120c5565b5050565b601f821115612127576120f881611fd2565b61210184611fe4565b81016020851015612110578190505b61212461211c85611fe4565b8301826120c4565b50505b505050565b5f82821c905092915050565b5f6121475f198460080261212c565b1980831691505092915050565b5f61215f8383612138565b9150826002028217905092915050565b6121788261194a565b67ffffffffffffffff81111561219157612190611c25565b5b61219b8254611e34565b6121a68282856120e6565b5f60209050601f8311600181146121d7575f84156121c5578287015190505b6121cf8582612154565b865550612236565b601f1984166121e586611fd2565b5f5b8281101561220c578489015182556001820191506020850194506020810190506121e7565b868310156122295784890151612225601f891682612138565b8355505b6001600288020188555050505b505050505050565b5f81519050919050565b5f82825260208201905092915050565b5f6122628261223e565b61226c8185612248565b935061227c818560208601611964565b6122858161198c565b840191505092915050565b5f6080820190506122a35f830187611a82565b6122b06020830186611a82565b6122bd6040830185611b8d565b81810360608301526122cf8184612258565b905095945050505050565b5f815190506122e8816118c2565b92915050565b5f602082840312156123035761230261188f565b5b5f612310848285016122da565b91505092915050565b5f60408201905061232c5f830185611a82565b6123396020830184611b8d565b9392505050565b7f4e487b71000000000000000000000000000000000000000000000000000000005f52601260045260245ffdfe697066733a2f2f516d505a78334d65384c6b794b52465241643970627237534e574b6b6a51585135314c377035654c433863413152a26469706673582212206c2d0009874d325904cbd20fe578b257aa812e2814f1ae7f1f454b2b192c841264736f6c63430008150033",
  "immutableReferences": {},
  "source": "// SPDX-License-Identifier: MIT\r\npragma solidity ^0.8.0;\r\nimport \"@openzeppelin/contracts/token/ERC721/extensions/ERC721URIStorage.sol\";\r\n\r\n\r\n\r\n    contract NFT is ERC721URIStorage {\r\n        uint256 public nextTokenId;\r\n        address public admin;\r\n    \r\n\r\n\r\n    constructor() ERC721(\"MY NFT\", \"NFT\") {\r\n        admin = msg.sender;\r\n    }\r\n\r\n\r\n \r\n\r\n\r\n\r\n    function mint(address to) external {\r\n        require(msg.sender == admin , \"only admin has can mint\");\r\n        _safeMint(to, nextTokenId);\r\n        _setTokenURI(nextTokenId, \"ipfs://QmPZx3Me8LkyKRFRAd9pbr7SNWKkjQXQ51L7p5eLC8cA1R\");\r\n        nextTokenId++;\r\n    }\r\n    \r\n}\r\n",
  "sourcePath": "/mnt/c/Users/dsoha/facial-recognition-blockchain/contracts/NFTMinting.sol",
  "compiler": {
    "name": "solc",
    "version": "0.8.21+commit.d9974bed.Emscripten.clang"
  },
  "schemaVersion": "3.4.16",
  "updatedAt": "2024-07-08T03:14:31.415Z",
  "devdoc": {
    "errors": {
      "ERC721IncorrectOwner(address,uint256,address)": [
        {
          "details": "Indicates an error related to the ownership over a particular token. Used in transfers.",
          "params": {
            "owner": "Address of the current owner of a token.",
            "sender": "Address whose tokens are being transferred.",
            "tokenId": "Identifier number of a token."
          }
        }
      ],
      "ERC721InsufficientApproval(address,uint256)": [
        {
          "details": "Indicates a failure with the `operator`s approval. Used in transfers.",
          "params": {
            "operator": "Address that may be allowed to operate on tokens without being their owner.",
            "tokenId": "Identifier number of a token."
          }
        }
      ],
      "ERC721InvalidApprover(address)": [
        {
          "details": "Indicates a failure with the `approver` of a token to be approved. Used in approvals.",
          "params": {
            "approver": "Address initiating an approval operation."
          }
        }
      ],
      "ERC721InvalidOperator(address)": [
        {
          "details": "Indicates a failure with the `operator` to be approved. Used in approvals.",
          "params": {
            "operator": "Address that may be allowed to operate on tokens without being their owner."
          }
        }
      ],
      "ERC721InvalidOwner(address)": [
        {
          "details": "Indicates that an address can't be an owner. For example, `address(0)` is a forbidden owner in EIP-20. Used in balance queries.",
          "params": {
            "owner": "Address of the current owner of a token."
          }
        }
      ],
      "ERC721InvalidReceiver(address)": [
        {
          "details": "Indicates a failure with the token `receiver`. Used in transfers.",
          "params": {
            "receiver": "Address to which tokens are being transferred."
          }
        }
      ],
      "ERC721InvalidSender(address)": [
        {
          "details": "Indicates a failure with the token `sender`. Used in transfers.",
          "params": {
            "sender": "Address whose tokens are being transferred."
          }
        }
      ],
      "ERC721NonexistentToken(uint256)": [
        {
          "details": "Indicates a `tokenId` whose `owner` is the zero address.",
          "params": {
            "tokenId": "Identifier number of a token."
          }
        }
      ]
    },
    "events": {
      "Approval(address,address,uint256)": {
        "details": "Emitted when `owner` enables `approved` to manage the `tokenId` token."
      },
      "ApprovalForAll(address,address,bool)": {
        "details": "Emitted when `owner` enables or disables (`approved`) `operator` to manage all of its assets."
      },
      "BatchMetadataUpdate(uint256,uint256)": {
        "details": "This event emits when the metadata of a range of tokens is changed. So that the third-party platforms such as NFT market could timely update the images and related attributes of the NFTs."
      },
      "MetadataUpdate(uint256)": {
        "details": "This event emits when the metadata of a token is changed. So that the third-party platforms such as NFT market could timely update the images and related attributes of the NFT."
      },
      "Transfer(address,address,uint256)": {
        "details": "Emitted when `tokenId` token is transferred from `from` to `to`."
      }
    },
    "kind": "dev",
    "methods": {
      "approve(address,uint256)": {
        "details": "See {IERC721-approve}."
      },
      "balanceOf(address)": {
        "details": "See {IERC721-balanceOf}."
      },
      "getApproved(uint256)": {
        "details": "See {IERC721-getApproved}."
      },
      "isApprovedForAll(address,address)": {
        "details": "See {IERC721-isApprovedForAll}."
      },
      "name()": {
        "details": "See {IERC721Metadata-name}."
      },
      "ownerOf(uint256)": {
        "details": "See {IERC721-ownerOf}."
      },
      "safeTransferFrom(address,address,uint256)": {
        "details": "See {IERC721-safeTransferFrom}."
      },
      "safeTransferFrom(address,address,uint256,bytes)": {
        "details": "See {IERC721-safeTransferFrom}."
      },
      "setApprovalForAll(address,bool)": {
        "details": "See {IERC721-setApprovalForAll}."
      },
      "supportsInterface(bytes4)": {
        "details": "See {IERC165-supportsInterface}"
      },
      "symbol()": {
        "details": "See {IERC721Metadata-symbol}."
      },
      "tokenURI(uint256)": {
        "details": "See {IERC721Metadata-tokenURI}."
      },
      "transferFrom(address,address,uint256)": {
        "details": "See {IERC721-transferFrom}."
      }
    },
    "version": 1
  },
  "userdoc": {
    "kind": "user",
    "methods": {},
    "version": 1
  }
}